:100000000C9434000C9451000C9451000C94510049
:100010000C9451000C9451000C9451000C9451001C
:100020000C9451000C9451000C9451000C9451000C
:100030000C9451000C9451000C94A50A0C9451009E
:100040000C9451000C9451000C9435040C94F90359
:100050000C9451000C9451000C9451000C945100DC
:100060000C9451000C94510011241FBECFEFD8E026
:10007000DEBFCDBF11E0A0E0B1E0EEE0F6E102C0EE
:1000800005900D92AC31B107D9F724E0ACE1B1E0B5
:1000900001C01D92AB31B207E1F70E944E090C94EA
:1000A000050B0C940000CF92EF92FF920F931F93D9
:1000B000E82FF92FA42FB52F71836083B383A28318
:1000C000208715830483F782E682C1863C9181E014
:1000D00090E0AC0102C0440F551F2A95E2F7232F90
:1000E000242B2C93A081B1814C912085BC0102C0AE
:1000F000660F771F2A95E2F79B01209524232C9306
:10010000A681B7812C913185AC0102C0440F551FE7
:100110003A95E2F7242B2C93A481B5812C9131855B
:1001200002C0880F991F3A95E2F7809582238C933D
:10013000128613861486158650E040E061E0CF01F8
:100140000E960E94B70A1F910F91FF90EF90CF90EB
:100150000895E82FF92F8285823009F458C0833042
:10016000D9F18130E9F0A081B1814C91208581E005
:1001700090E0BC0102C0660F771F2A95E2F79B0151
:10018000209524232C93A481B5812C91318502C024
:10019000880F991F3A95E2F7809582238C930895F2
:1001A000A081B1814C91808521E030E0B90102C08D
:1001B000660F771F8A95E2F7CB01809584238C9395
:1001C000A481B5818C91918502C0220F331F9A952D
:1001D000E2F7282B2C930895A081B1812C913085D2
:1001E00081E090E0AC0102C0440F551F3A95E2F760
:1001F000242B2C93A481B5812C91318502C0880FCA
:10020000991F3A95E2F7809582238C930895A081F7
:10021000B1812C91308581E090E0AC0102C0440FA7
:10022000551F3A95E2F7242B2C93A481B5812C918C
:10023000318502C0880F991F3A95E2F7822B8C9383
:100240000895E82FF92F6287CF010E94A900089531
:10025000E82FF92F648745870895CF93DF93C82F40
:10026000D92F6B87613029F0623091F0DF91CF9107
:1002700008956A85CE010E94A9004C8584E6489FB6
:10028000A001112460E0CE010E960E94B70AEECFC5
:1002900060E0CE010E94A9004D8584E6489FA00140
:1002A000112460E0CE010E960E94B70ADFCF0F93B3
:1002B0001F93CF93DF93C82FD92F8E01025F1F4F5B
:1002C00050E040E062E0C8010E94B70A8823A1F034
:1002D0008B858130B1F0823021F581E08B876A8592
:1002E000CE010E94A9004C8584E6489FA0011124FC
:1002F00060E0C8010E94B70ADF91CF911F910F9172
:10030000089582E08B8760E0CE010E94A9004D85B0
:1003100084E6489FA001112460E0C8010E94B70A4A
:10032000EBCF1B866A85CE010E94A90050E040E019
:1003300061E0C8010E94B70ADFCFCF93DF93CDB74A
:10034000DEB728970FB6F894DEBF0FBECDBFE82FFB
:10035000F92FFA83E983AF01460F571F5C834B8364
:10036000FE83ED83F887EF83282F3A815C81682F25
:100370007E81988528960FB6F894DEBF0FBECDBF5C
:10038000DF91CF910895CF93DF93CDB7DEB7289754
:100390000FB6F894DEBF0FBECDBF6D837E838F8313
:1003A000988781E04F8158852D813E814217530700
:1003B00009F080E028960FB6F894DEBF0FBECDBFDF
:1003C000DF91CF910895CF93DF93CDB7DEB7289714
:1003D0000FB6F894DEBF0FBECDBF29833A834B839F
:1003E0005C836D837E838F8398872D813E812F5F11
:1003F0003F4F8B819C812817390710F029813A8162
:1004000081E04F8158854217530709F080E0289614
:100410000FB6F894DEBF0FBECDBFDF91CF91089528
:10042000CF93DF93CDB7DEB728970FB6F894DEBF32
:100430000FBECDBF29833A834B835C836D837E835C
:100440008F8398872D813E814F81588524173507EA
:1004500068F4CA01821B930B019728960FB6F89493
:10046000DEBF0FBECDBFDF91CF9108958B819C8100
:1004700069817A81861B970B241B350B821B930B9A
:100480000197EBCFCF93DF93CDB7DEB728970FB6A9
:10049000F894DEBF0FBECDBF29833A834B835C83C4
:1004A0006D837E838F8398874D815E812F81388510
:1004B0004217530760F0CA01821B930B28960FB6B0
:1004C000F894DEBF0FBECDBFDF91CF9108958B8131
:1004D0009C8169817A81861B970B241B350B821BBB
:1004E000930BECCFE82FF92FA08171812681378102
:1004F000848195810196428153818417950710F07C
:100500008A2F972F8217930789F0A481B5816C9366
:10051000848195810196228133818217930710F09F
:10052000808191819583848380E0089581E008959E
:10053000E82FF92FA481B5816C9384819581019670
:10054000228133818217930710F0808191819583F6
:100550008483468157814817590711F080E0089538
:1005600001968217930710F080819181978386838B
:1005700081E00895CF93DF93E82FF92FA62FB72FAF
:1005800024813581868197812817390799F0EC01FC
:1005900088818C938681978101962281338182178D
:1005A000930710F0808191819783868380E0DF91AB
:1005B000CF91089581E0FBCFE82FF92FA62FB72F19
:1005C00024813581868197812817390729F0FC011C
:1005D00080818C9380E0089581E0089560E071E06F
:1005E0008CE292E00E949D01E4E2F1E020833183FD
:1005F00042835383648375838683978360E071E0CD
:100600008CE291E00E949D01ECE1F1E020833183D6
:100610004283538364837583868397831092C500D6
:1006200082E28093C400E0ECF0E08081826080830D
:10063000E1ECF0E08081886980830895CF93CFB7A3
:10064000F894209124013091250140912601509188
:100650002701609128017091290180912A019091D0
:100660002B010E941002CFBFCF910895CF93CFB737
:10067000F894209124013091250140912601509158
:100680002701609128017091290180912A019091A0
:100690002B010E94C301CFBF882349F3CF91089556
:1006A000CF93682FCFB7F89484E291E00E94720252
:1006B000CFBF811105C0E1ECF0E0908190629083A2
:1006C000CF910895CF93C82F0E945003811104C089
:1006D0008C2F90E0CF9108958EEF9FEFFBCFEF929C
:1006E000FF920F931F93CF93DF93C82FD92FE62E3E
:1006F000F72E8701E114F10469F010E000E0888131
:1007000021960E945003811105C00F5F1F4FE01614
:10071000F106A9F7C801DF91CF911F910F91FF90CA
:10072000EF900895CF93CFB7F89420911C013091AA
:100730001D0140911E0150911F0160912001709197
:10074000210180912201909123010E944202CFBF9A
:10075000CF910895CF93682F792FCFB7F8948CE17C
:1007600091E00E94DC02CFBFCF910895CF93682F14
:10077000792FCFB7F8948CE191E00E94BA02CFBFF5
:10078000CF910895CF93DF930F92CDB7DEB7CE010F
:1007900001960E94B603811106C0898190E00F90F6
:1007A000DF91CF9108958EEF9FEFF9CFEF92FF92F7
:1007B0000F931F93CF93DF93E82EF92E062F172F59
:1007C000E8010115110569F0D0E0C0E0C7018C0F08
:1007D0009D1F0E94B603811104C021960C171D07AE
:1007E000A9F7CE01DF91CF911F910F91FF90EF906C
:1007F00008951F920F920FB60F9211242F933F93DB
:100800004F935F936F937F938F939F93AF93BF9318
:10081000EF93FF93CF93DF930F92CDB7DEB7BE0177
:100820006F5F7F4F84E291E00E94BA02811117C08E
:1008300089818093C6000F90DF91CF91FF91EF9156
:10084000BF91AF919F918F917F916F915F914F91E8
:100850003F912F910F900FBE0F901F901895E1ECD4
:10086000F0E080818F7D8083E6CF1F920F920FB6DC
:100870000F9211242F933F934F935F936F937F9326
:100880008F939F93AF93BF93EF93FF936091C600B5
:100890008CE191E00E947202FF91EF91BF91AF91C4
:1008A0009F918F917F916F915F914F913F912F9188
:1008B0000F900FBE0F901F9018950F93E82FF92FF0
:1008C000A22FB32F7183608355834483B383A283A4
:1008D00006838AEF90E09587848784E190E0948B8B
:1008E000838B4C9121E030E0C90102C0880F991F31
:1008F0000A95E2F7809584238C93A481B5818C912D
:10090000968102C0220F331F9A95E2F7282B2C9371
:1009100085B78F7E85BF0000A081B1818C9190E06A
:1009200080959095268102C0959587952A95E2F746
:1009300080FF05C083E0868B158A0F910895168A83
:10094000FBCF0F931F93CF93DF93C82FD92FE8814D
:10095000F98180819E8121E030E002C0220F331FA7
:100960009A95E2F78095982F92238E89823009F428
:1009700065C098F0833009F475C0843039F58E0174
:10098000025F1F4F50E040E062E0C8010E94B70ADA
:10099000811179C084E08E8B19C0882381F099235E
:1009A00021F18D89882399F14FEF5FEF61E0CE014E
:1009B00007960E94B70A1D8A83E08E8B07C0992391
:1009C00019F08D89882339F01D8A1E8ADF91CF9115
:1009D0001F910F9108954C855D8560E0CE010796CB
:1009E0000E94B70A81E08E8BF1CF4FEF5FEF61E09D
:1009F000CE0107960E94B70A4B895C8960E0CE0160
:100A00000E960E94B70A1D8A84E08E8BDFCF8E017E
:100A1000095F1F4F50E040E062E0C8010E94B70A42
:100A2000811103C081E08E8BD1CF4FEF5FEF61E08A
:100A3000C8010E94B70A82E08E8BC8CF992339F093
:100A40008D89882319F21D8A83E08E8BBFCF4B8955
:100A50005C8960E0CE010E960E94B70A1D8A84E090
:100A60008E8BB4CF992321F01D8A83E08E8BAECF7D
:100A70004B895C8960E0CE010E960E94B70A1D8A00
:100A800084E08E8BA3CF4FEF5FEF61E0C8010E943F
:100A9000B70A1E8A9BCFE82FF92F8689823011F082
:100AA00080E008958589882311F080E0089583E02F
:100AB000868B81E00895FC0175876487089521E0A5
:100AC000FC01258B089510922C0310922F03109295
:100AD000000410922E0381E080932D03E0E3F3E005
:100AE0008FEF87A716A680939303109292038093AB
:100AF000C7031092C6038093FB031092FA03089574
:100B0000E82FF92F83A5882339F064EF71E0CF0136
:100B100001960E945B0508956AEF70E0CF0101968F
:100B20000E945B0508950F931F93CF93DF93C82F07
:100B3000D92F8E01085E1F4F60E0C8010E942D0171
:100B40008BA5882361F08DA5882371F062E0C80130
:100B50000E942101DF91CF911F910F91089560E0D4
:100B6000C8010E942101F6CF61E0C8010E94210165
:100B7000F1CF0F931F93CF93DF93C8E4D3E008E145
:100B800014E060E0CE010E942D0163E0CE010E94DE
:100B90002101E496C017D107A1F7DF91CF911F91F2
:100BA0000F91089580912E03843F09F463C090F55E
:100BB000823F09F44AC0833FA9F460E088E493E0EF
:100BC0000E94210163E08CE793E00E94210160E034
:100BD00080EB93E00E94210160E084EE93E00E94AC
:100BE00021010895813FA9F463E088E493E00E9425
:100BF000210163E08CE793E00E94210160E080EB3B
:100C000093E00E94210160E084EE93E00E942101C4
:100C100008950895883F09F442C08C3FA9F460E02C
:100C200088E493E00E94210160E08CE793E00E9459
:100C3000210160E080EB93E00E94210163E084EEFB
:100C400093E00E9421010895089563E088E493E011
:100C50000E94210160E08CE793E00E94210160E0A6
:100C600080EB93E00E94210160E084EE93E00E941B
:100C70002101089560E088E493E00E94210160E092
:100C80008CE793E00E94210163E080EB93E00E94F7
:100C9000210163E084EE93E00E942101089560E069
:100CA00088E493E00E94210160E08CE793E00E94D9
:100CB000210163E080EB93E00E94210160E084EE7B
:100CC00093E00E94210108959FEF980F943070F4F3
:100CD00020912C0330E08150990BA90102C0559559
:100CE00047958A95E2F7CA018170089580E00895DA
:100CF000282F8FEF820F843020F5662389F0215052
:100D0000330B81E090E0AC0102C0440F551F2A95DF
:100D1000E2F780912F03842B80932F0380E00895C6
:100D20002150330B81E090E002C0880F991F2A9573
:100D3000E2F7809590912F03892380932F03862FCC
:100D400008958FEF0895BF92CF92DF92EF92FF92B6
:100D50000F931F93CF93DF93C82FD92FCE01019606
:100D60000E944B05882309F453C08BA5811114C040
:100D700089A9882309F442C0EAA9FBA983A588238D
:100D800009F457C061E088810E94780681E08CA751
:100D90008FEF809300044DC060E088810E94780648
:100DA0001CA600E313E00F2EF0E0CF2EF4E0DF2EC0
:100DB000F02DBB24BA9410C060E0F80180810E943D
:100DC0007806D8019C961C929C979E96BC920C5CCF
:100DD0001F4F0C151D0571F0D801D296ED91FC91B5
:100DE000D397908188819813F2CFD1968C918823E4
:100DF00071F3E2CF8FEF809300041BC061E0888124
:100E00000E94780681E08CA78FEF8093000411C0C8
:100E10008EA581110DC08BA5882329F061E0888102
:100E20000E94780606C060E088810E94780601C0B2
:100E30001EA6DF91CF911F910F91FF90EF90DF9051
:100E4000CF90BF900895CF93DF93C82FD92F88817B
:100E50000E9464069FA59923E9F01FA68BA78CA783
:100E60008823B1F08FEF8DA7CE010E949305CE01AC
:100E70000E948005CE0101960E94A104CE010E942D
:100E8000A306CE0148960E945701DF91CF910895A5
:100E90001DA6EACF9BA5981739F39CA5981729F0B2
:100EA0009FEF9DA78BA78CA7DFCF1DA68BA7DCCFBD
:100EB0000E948709982F907F19F080932E03089540
:100EC00010922E0380932C030895809100048111C9
:100ED00001C0089580912F030E94D109982F907F1F
:100EE00019F080932E03089590912F039F70891716
:100EF00021F08FEF80932E03089510922E0310920D
:100F00000004E7CF0E9458070E94D20580E393E0D7
:100F10000E94230784E693E00E94230788E993E078
:100F20000E9423078CEC93E00E9423070E94650730
:100F30000E94D20508950F93E82FF92FA22FB32F07
:100F40007183608355834483B383A283068384EFD4
:100F500091E09587848784E190E0948B838B4C911A
:100F600021E030E0C90102C0880F991F0A95E2F71D
:100F7000809584238C93A481B5818C91968102C045
:100F8000220F331F9A95E2F7282B2C9385B78F7E7B
:100F900085BF0000A081B1818C9190E080959095F3
:100FA000268102C0959587952A95E2F780FF05C0B6
:100FB00081E0868B858B0F910895168A158AFBCF69
:100FC0000F931F93CF93DF93C82FD92FE881F98117
:100FD00080819E8121E030E002C0220F331F9A956C
:100FE000E2F7809582239E89923009F448C038F454
:100FF000992391F08823C9F181E08D8B0FC0933044
:1010000069F481111AC04FEF5FEF61E0CE010796DE
:101010000E94B70A1E8A02C0811105C0DF91CF91DC
:101020001F910F9108954C855D8560E0CE01079674
:101030000E94B70A83E08E8BF1CF8E01095F1F4FAC
:1010400050E040E062E0C8010E94B70A811103C08D
:1010500083E08E8BE3CF4FEF5FEF61E0C8010E942A
:10106000B70A81E08E8B8D8BD9CF4B895C8960E08C
:10107000CE010E960E94B70A82E08E8BCFCF8E01F2
:10108000025F1F4F50E040E062E0C8010E94B70AD3
:10109000811103C082E08E8BC1CF4FEF5FEF61E023
:1010A000C8010E94B70A1E8AB9CFFC01858908953C
:1010B000FC01158A089587B1807E87B988B18F6158
:1010C00088B985B78F7E85BF089586B180958F7169
:1010D0000895CF92EF92FF920F931F93E0E3F3E016
:1010E00081E0808310AA11AA02E02AE230E04BE2FC
:1010F00050E069E270E081E393E00E945D040F2E0E
:10110000F6E0CF2EF02D0F2EFAE2EF2EF12CF02D7F
:101110000BE210E025E044E250E065E270E088E494
:1011200093E00E9453008091180480FF03C08FEF6A
:10113000809360031F910F91FF90EF90CF900895DF
:10114000CF92EF92FF920F931F9382E080936403FC
:10115000109294031092950303E02AE230E04BE2F0
:1011600050E069E270E085E693E00E945D040F2E96
:10117000F7E0CF2EF02D0F2EFAE2EF2EF12CF02D0E
:101180000BE210E024E044E250E065E270E08CE71E
:1011900093E00E9453008091180481FF03C08FEFF9
:1011A000809394031F910F91FF90EF90CF9008953B
:1011B000CF92EF92FF920F931F9383E08093980357
:1011C0001092C8031092C90304E02AE230E04BE217
:1011D00050E069E270E089E993E00E945D04C12C6F
:1011E0000F2EF4E2EF2EF12CF02D05E210E023E0BB
:1011F00044E250E065E270E080EB93E00E9453002F
:101200008091180482FF03C08FEF8093C8031F9161
:101210000F91FF90EF90CF900895CF92EF92FF92B1
:101220000F931F9384E08093CC031092FC031092E1
:10123000FD0305E02AE230E04BE250E069E270E0B5
:101240008DEC93E00E945D04CC24C3940F2EF4E255
:10125000EF2EF12CF02D05E210E022E044E250E008
:1012600065E270E084EE93E00E94530080911804E0
:1012700083FF03C09FEF9093FC0384FF09C08FEFAF
:101280008093FD0388E993E09093FF038093FE032E
:101290001F910F91FF90EF90CF90089500D000D054
:1012A0000F92CDB7DEB70E945B0869EF83E00E9422
:1012B000800A0E94EE020E946508809318040E9432
:1012C000630505E027E230E048E250E066E270E0C6
:1012D00081E094E00E949B070E9469080E94A00898
:1012E0000E94D8080E940D090E94820744E650E03F
:1012F00060E0CE0101960E94B70A50E040E062E053
:10130000CE0101960E94B70A8823B9F3EDCFCF939F
:10131000DF930F92CDB7DEB70E949203892B29F09D
:10132000CE0101960E94B603F7CF82E50E945003DA
:10133000811128C08FE70E945003811128C080ECE2
:101340000E945003811125C08FE39CE90197F1F7BA
:1013500000C000000E9492030297E8F0CE010196BF
:101360000E94B603811119C089818B3511F08CEF71
:101370000AC0CE0101960E94B603811110C0898176
:101380008F7001C081EF0F90DF91CF91089581EFB1
:10139000FACF81EFF8CF88EFF6CF84EFF4CF83EF69
:1013A000F2CF1F93CF93DF9300D0CDB7DEB7182FC6
:1013B0000E949203892B29F0CE0101960E94B60368
:1013C000F7CF87E50E94500381117BC08FE70E9411
:1013D000500381117DC080EC0E94500381117AC0BE
:1013E0008FE39CE90197F1F700C000000E9492038F
:1013F000019711F088EF66C0CE0101960E94B603F6
:1014000081116AC089818B3511F08CEF5BC0812F0F
:101410008F700E945003811161C01FE180E00E9423
:10142000500381115DC01150C9F78FE39CE901970A
:10143000F1F700C000000E949203029711F088EFBC
:1014400041C0CE0102960E94B60381114BC0CE016D
:1014500001960E94B603811147C089818D3531F014
:101460008CEF30C0CE0101960E94B6030E94920319
:10147000892BC1F787E50E945003811137C08FEF98
:101480000E945003811134C08FEF0E9450038111DC
:1014900031C08FE39CE90197F1F700C000000E9482
:1014A0009203019711F088EF0DC0CE0101960E94C2
:1014B000B603811121C089818B3501F58A818F7036
:1014C00001C081EF0F900F90DF91CF911F91089590
:1014D00081EFF8CF81EFF6CF84EFF4CF81EFF2CF39
:1014E00081EFF0CF84EFEECF84EFECCF81EFEACF46
:1014F00081EFE8CF81EFE6CF84EFE4CF8CEFE2CF4E
:1015000010921A041092190492E094BD67BD16BCA3
:10151000A99AEEE6F0E0908192609083877085BD95
:101520000895CF93DF9300D0CDB7DEB7F8948091C4
:10153000190490911A049A838983789489819A81F5
:101540000F900F90DF91CF9108958F938FB78F9366
:101550009F938091190490911A04019690931A0414
:10156000809319049F918F918FBF8F911895DF926F
:10157000EF92FF920F931F93CF93DF9300D0CDB7DD
:10158000DEB7E82EF92E162FD42E052F0E94910AD1
:10159000282F392F3A8329831130C9F0123009F1ED
:1015A00080E0112351F00F900F90DF91CF911F91A8
:1015B0000F91FF90EF90DF900895F701D0820183A3
:1015C00089819A81948383831282812FECCFF701E2
:1015D0001182108289819A8194838383128280E0B0
:1015E000E2CFF701828181110EC049815A812381A6
:1015F000348160817181260F371F4217530798F29B
:0E16000081E08283D0CF81E0CECFF894FFCF7F
:10160E0000000001000000000000C2030000000006
:0C161E0000020000000062030000000059
:00000001FF
