:100000000C9434000C9451000C9451000C94510049
:100010000C9451000C9451000C9451000C9451001C
:100020000C9451000C9451000C9451000C9451000C
:100030000C9451000C9451000C94EC0A0C94510057
:100040000C9451000C9451000C9435040C94F90359
:100050000C9451000C9451000C9451000C945100DC
:100060000C9451000C94510011241FBECFEFD8E026
:10007000DEBFCDBF11E0A0E0B1E0ECE9F6E102C0E7
:1000800005900D92AE31B107D9F724E0AEE1B1E0B1
:1000900001C01D92A332B207E1F70E9486090C94B9
:1000A0004C0B0C940000CF92EF92FF920F931F9392
:1000B000E82FF92FA42FB52F71836083B383A28318
:1000C000208715830483F782E682C1863C9181E014
:1000D00090E0AC0102C0440F551F2A95E2F7232F90
:1000E000242B2C93A081B1814C912085BC0102C0AE
:1000F000660F771F2A95E2F79B01209524232C9306
:10010000A681B7812C913185AC0102C0440F551FE7
:100110003A95E2F7242B2C93A481B5812C9131855B
:1001200002C0880F991F3A95E2F7809582238C933D
:10013000128613861486158650E040E061E0CF01F8
:100140000E960E94FE0A1F910F91FF90EF90CF90A4
:100150000895E82FF92F8285823009F458C0833042
:10016000D9F18130E9F0A081B1814C91208581E005
:1001700090E0BC0102C0660F771F2A95E2F79B0151
:10018000209524232C93A481B5812C91318502C024
:10019000880F991F3A95E2F7809582238C930895F2
:1001A000A081B1814C91808521E030E0B90102C08D
:1001B000660F771F8A95E2F7CB01809584238C9395
:1001C000A481B5818C91918502C0220F331F9A952D
:1001D000E2F7282B2C930895A081B1812C913085D2
:1001E00081E090E0AC0102C0440F551F3A95E2F760
:1001F000242B2C93A481B5812C91318502C0880FCA
:10020000991F3A95E2F7809582238C930895A081F7
:10021000B1812C91308581E090E0AC0102C0440FA7
:10022000551F3A95E2F7242B2C93A481B5812C918C
:10023000318502C0880F991F3A95E2F7822B8C9383
:100240000895E82FF92F6287CF010E94A900089531
:10025000E82FF92F648745870895CF93DF93C82F40
:10026000D92F6B87613029F0623091F0DF91CF9107
:1002700008956A85CE010E94A9004C8584E6489FB6
:10028000A001112460E0CE010E960E94FE0AEECF7E
:1002900060E0CE010E94A9004D8584E6489FA00140
:1002A000112460E0CE010E960E94FE0ADFCF0F936C
:1002B0001F93CF93DF93C82FD92F8E01025F1F4F5B
:1002C00050E040E062E0C8010E94FE0A8823A1F0ED
:1002D0008B858130B1F0823021F581E08B876A8592
:1002E000CE010E94A9004C8584E6489FA0011124FC
:1002F00060E0C8010E94FE0ADF91CF911F910F912B
:10030000089582E08B8760E0CE010E94A9004D85B0
:1003100084E6489FA001112460E0C8010E94FE0A03
:10032000EBCF1B866A85CE010E94A90050E040E019
:1003300061E0C8010E94FE0ADFCFCF93DF93CDB703
:10034000DEB728970FB6F894DEBF0FBECDBFE82FFB
:10035000F92FFA83E983AF01460F571F5C834B8364
:10036000FE83ED83F887EF83282F3A815C81682F25
:100370007E81988528960FB6F894DEBF0FBECDBF5C
:10038000DF91CF910895CF93DF93CDB7DEB7289754
:100390000FB6F894DEBF0FBECDBF6D837E838F8313
:1003A000988781E04F8158852D813E814217530700
:1003B00009F080E028960FB6F894DEBF0FBECDBFDF
:1003C000DF91CF910895CF93DF93CDB7DEB7289714
:1003D0000FB6F894DEBF0FBECDBF29833A834B839F
:1003E0005C836D837E838F8398872D813E812F5F11
:1003F0003F4F8B819C812817390710F029813A8162
:1004000081E04F8158854217530709F080E0289614
:100410000FB6F894DEBF0FBECDBFDF91CF91089528
:10042000CF93DF93CDB7DEB728970FB6F894DEBF32
:100430000FBECDBF29833A834B835C836D837E835C
:100440008F8398872D813E814F81588524173507EA
:1004500068F4CA01821B930B019728960FB6F89493
:10046000DEBF0FBECDBFDF91CF9108958B819C8100
:1004700069817A81861B970B241B350B821B930B9A
:100480000197EBCFCF93DF93CDB7DEB728970FB6A9
:10049000F894DEBF0FBECDBF29833A834B835C83C4
:1004A0006D837E838F8398874D815E812F81388510
:1004B0004217530760F0CA01821B930B28960FB6B0
:1004C000F894DEBF0FBECDBFDF91CF9108958B8131
:1004D0009C8169817A81861B970B241B350B821BBB
:1004E000930BECCFE82FF92FA08171812681378102
:1004F000848195810196428153818417950710F07C
:100500008A2F972F8217930789F0A481B5816C9366
:10051000848195810196228133818217930710F09F
:10052000808191819583848380E0089581E008959E
:10053000E82FF92FA481B5816C9384819581019670
:10054000228133818217930710F0808191819583F6
:100550008483468157814817590711F080E0089538
:1005600001968217930710F080819181978386838B
:1005700081E00895CF93DF93E82FF92FA62FB72FAF
:1005800024813581868197812817390799F0EC01FC
:1005900088818C938681978101962281338182178D
:1005A000930710F0808191819783868380E0DF91AB
:1005B000CF91089581E0FBCFE82FF92FA62FB72F19
:1005C00024813581868197812817390729F0FC011C
:1005D00080818C9380E0089581E0089560E071E06F
:1005E0008EE292E00E949D01E6E2F1E020833183F9
:1005F00042835383648375838683978360E071E0CD
:100600008EE291E00E949D01EEE1F1E020833183D2
:100610004283538364837583868397831092C500D6
:1006200082E28093C400E0ECF0E08081826080830D
:10063000E1ECF0E08081886980830895CF93CFB7A3
:10064000F894209126013091270140912801509182
:10065000290160912A0170912B0180912C019091C8
:100660002D010E941002CFBFCF910895CF93CFB735
:10067000F894209126013091270140912801509152
:10068000290160912A0170912B0180912C01909198
:100690002D010E94C301CFBF882349F3CF91089554
:1006A000CF93682FCFB7F89486E291E00E94720250
:1006B000CFBF811105C0E1ECF0E0908190629083A2
:1006C000CF910895CF93C82F0E945003811104C089
:1006D0008C2F90E0CF9108958EEF9FEFFBCFEF929C
:1006E000FF920F931F93CF93DF93C82FD92FE62E3E
:1006F000F72E8701E114F10469F010E000E0888131
:1007000021960E945003811105C00F5F1F4FE01614
:10071000F106A9F7C801DF91CF911F910F91FF90CA
:10072000EF900895CF93CFB7F89420911E013091A8
:100730001F0140912001509121016091220170918F
:10074000230180912401909125010E944202CFBF94
:10075000CF910895CF93682F792FCFB7F8948EE17A
:1007600091E00E94DC02CFBFCF910895CF93682F14
:10077000792FCFB7F8948EE191E00E94BA02CFBFF3
:10078000CF910895CF93DF930F92CDB7DEB7CE010F
:1007900001960E94B603811106C0898190E00F90F6
:1007A000DF91CF9108958EEF9FEFF9CFEF92FF92F7
:1007B0000F931F93CF93DF93E82EF92E062F172F59
:1007C000E8010115110569F0D0E0C0E0C7018C0F08
:1007D0009D1F0E94B603811104C021960C171D07AE
:1007E000A9F7CE01DF91CF911F910F91FF90EF906C
:1007F00008951F920F920FB60F9211242F933F93DB
:100800004F935F936F937F938F939F93AF93BF9318
:10081000EF93FF93CF93DF930F92CDB7DEB7BE0177
:100820006F5F7F4F86E291E00E94BA02811117C08C
:1008300089818093C6000F90DF91CF91FF91EF9156
:10084000BF91AF919F918F917F916F915F914F91E8
:100850003F912F910F900FBE0F901F901895E1ECD4
:10086000F0E080818F7D8083E6CF1F920F920FB6DC
:100870000F9211242F933F934F935F936F937F9326
:100880008F939F93AF93BF93EF93FF936091C600B5
:100890008EE191E00E947202FF91EF91BF91AF91C2
:1008A0009F918F917F916F915F914F913F912F9188
:1008B0000F900FBE0F901F9018950F93E82FF92FF0
:1008C000A22FB32F7183608355834483B383A283A4
:1008D000068384E190E095878487948B838B4C9189
:1008E00021E030E0C90102C0880F991F0A95E2F7A4
:1008F000809584238C93A481B5818C91968102C0CC
:10090000220F331F9A95E2F7282B2C9385B78F7E01
:1009100085BF0000A081B1818C9190E08095909579
:10092000268102C0959587952A95E2F780FF05C03C
:1009300083E0868B158A0F910895168AFBCF0F935B
:100940001F93CF93DF93C82FD92FE881F98180813E
:100950009E8121E030E002C0220F331F9A95E2F71A
:100960008095982F92238E89823009F465C098F083
:10097000833009F475C0843039F58E01025F1F4F52
:1009800050E040E062E0C8010E94FE0A811179C097
:1009900084E08E8B19C0882381F0992321F18D8901
:1009A000882399F14FEF5FEF61E0CE0107960E9437
:1009B000FE0A1D8A83E08E8B07C0992319F08D896A
:1009C000882339F01D8A1E8ADF91CF911F910F91E4
:1009D00008954C855D8560E0CE0107960E94FE0A71
:1009E00081E08E8BF1CF4FEF5FEF61E0CE01079694
:1009F0000E94FE0A4B895C8960E0CE010E960E943F
:100A0000FE0A1D8A84E08E8BDFCF8E01095F1F4FA7
:100A100050E040E062E0C8010E94FE0A811103C07C
:100A200081E08E8BD1CF4FEF5FEF61E0C8010E9474
:100A3000FE0A82E08E8BC8CF992339F08D898823F6
:100A400019F21D8A83E08E8BBFCF4B895C8960E0F1
:100A5000CE010E960E94FE0A1D8A84E08E8BB4CFD2
:100A6000992321F01D8A83E08E8BAECF4B895C8960
:100A700060E0CE010E960E94FE0A1D8A84E08E8BF5
:100A8000A3CF4FEF5FEF61E0C8010E94FE0A1E8A0C
:100A90009BCFE82FF92F8689823011F080E00895EE
:100AA0008589882311F080E0089583E0868B81E0BA
:100AB0000895FC0175876487089521E0FC01258B6A
:100AC000089510922E031092320310920304109294
:100AD000310381E080933003E3E3F3E08FEF87A7F6
:100AE00016A680939603109295038093CA031092E2
:100AF000C9038093FE031092FD030895E82FF92F98
:100B000083A5882339F064EF71E0CF0101960E943C
:100B10005905089564E170E0CF0101960E945905DE
:100B200008950F931F93CF93DF93C82FD92F8E0172
:100B3000085E1F4F60E0C8010E942D018BA588232D
:100B400061F08DA5882371F062E0C8010E94210147
:100B5000DF91CF911F910F91089560E0C8010E942D
:100B60002101F6CF61E0C8010E942101F1CF0F936E
:100B70001F93CF93DF93CBE4D3E00BE114E060E06D
:100B8000CE010E942D0163E0CE010E942101E49676
:100B9000C017D107A1F7DF91CF911F910F91089551
:100BA000CF93C0912F03C43008F494C010922F0348
:100BB00080913103843F09F463C090F5823F09F4CA
:100BC0004AC0833FA9F460E08BE493E00E942101D6
:100BD00063E08FE793E00E94210160E083EB93E004
:100BE0000E94210160E087EE93E00E94210173C022
:100BF000813F09F070C063E08BE493E00E94210123
:100C000063E08FE793E00E94210160E083EB93E0D3
:100C10000E94210160E087EE93E00E9421015BC009
:100C2000883F09F442C08C3F09F055C060E08BE476
:100C300093E00E94210160E08FE793E00E94210190
:100C400060E083EB93E00E94210163E087EE93E094
:100C50000E94210140C063E08BE493E00E942101E7
:100C600060E08FE793E00E94210160E083EB93E076
:100C70000E94210160E087EE93E00E9421012BC0D9
:100C800060E08BE493E00E94210160E08FE793E055
:100C90000E94210163E083EB93E00E94210163E065
:100CA00087EE93E00E94210116C060E08BE493E0A0
:100CB0000E94210160E08FE793E00E94210163E040
:100CC00083EB93E00E94210160E087EE93E00E94B5
:100CD000210101C0C0E08C2FCF910895282F8430CE
:100CE00058F490912E03892F90E002C09595879536
:100CF0002A95E2F78170089580E00895843008F520
:100D0000662371F021E030E002C0220F331F8A9584
:100D1000E2F780913203822B8093320380E00895C2
:100D200021E030E0A90102C0440F551F8A95E2F787
:100D3000CA01809590913203892380933203862FD4
:100D400008958FEF0895BF92CF92DF92EF92FF92B6
:100D50000F931F93CF93DF93C82FD92FCE01019606
:100D60000E944905882309F44AC08BA5811113C04C
:100D700089A98823D1F1EAA9FBA983A5882309F4CD
:100D80004FC061E088810E947E0681E08CA78FEFD2
:100D90008093030445C060E088810E947E061CA603
:100DA00003E313E00F2EF3E0CF2EF4E0DF2EF02D5F
:100DB000BB24BA940CC060E080810E947E06F801DA
:100DC00014A6B6A60C5C1F4F0C151D0551F0F801BA
:100DD00082A993A98C179D07A9F781A9882391F36C
:100DE000EACF8FEF809303041BC061E088810E94EB
:100DF0007E0681E08CA78FEF8093030411C08EA53F
:100E000081110DC08BA5882329F061E088810E94A3
:100E10007E0606C060E088810E947E0601C01EA694
:100E2000DF91CF911F910F91FF90EF90DF90CF90C6
:100E3000BF900895CF93DF93C82FD92F88810E9448
:100E40006E069FA59923E9F01FA68BA78CA7882380
:100E5000B1F08FEF8DA7CE010E949105CE010E94C7
:100E60007E05CE0101960E949F04CE010E94A3063A
:100E7000CE0148960E945701DF91CF9108951DA69B
:100E8000EACF9BA5981739F39CA5981729F09FEFF7
:100E90009DA78BA78CA7DFCF1DA68BA7DCCF0E94B9
:100EA000D609982F907F41F08093310380912F03D2
:100EB0008F5F80932F0308951092310310922F03B8
:100EC00080932E03089580910304811101C0089539
:100ED000809132030E941E0A982F907F41F08093E8
:100EE000310380912F038F5F80932F03089590919A
:100EF00032039F70891749F08FEF809331038091FF
:100F00002F038F5F80932F03089510923103109267
:100F10002F0310920304DBCFEF92FF921F93CF9326
:100F2000DF9384E094E00E9419080E944F0783E356
:100F300093E00E941A0787E693E00E941A078BE964
:100F400093E00E941A078FEC93E00E941A0784E056
:100F500094E00E948E08811108C00E946307DF910F
:100F6000CF911F91FF90EF90089584E094E00E944C
:100F70009108C3E3D3E00F2EF3E0EF2EF4E0FF2E51
:100F8000F02D1FEF60E088810E947E061CA6CE0136
:100F900001960E945D0510930304E496CE15DF05CB
:100FA00089F70E94B705D9CF0F93E82FF92FA22F09
:100FB000B32F7183608355834483B383A2830683F5
:100FC00084EF91E09587848784E190E0948B838B14
:100FD0004C9121E030E0C90102C0880F991F0A95A9
:100FE000E2F7809584238C93A481B5818C919681BE
:100FF00002C0220F331F9A95E2F7282B2C9385B756
:101000008F7E85BF0000A081B1818C9190E080959A
:101010009095268102C0959587952A95E2F780FFE5
:1010200005C081E0868B858B0F910895168A158AFD
:10103000FBCF0F931F93CF93DF93C82FD92FE88156
:10104000F98180819E8121E030E002C0220F331FB0
:101050009A95E2F7809582239E89923009F448C0E0
:1010600038F4992391F08823C9F181E08D8B0FC06A
:10107000933069F481111AC04FEF5FEF61E0CE0148
:1010800007960E94FE0A1E8A02C0811105C0DF91E8
:10109000CF911F910F9108954C855D8560E0CE0141
:1010A00007960E94FE0A83E08E8BF1CF8E01095FC6
:1010B0001F4F50E040E062E0C8010E94FE0A81112B
:1010C00003C083E08E8BE3CF4FEF5FEF61E0C80199
:1010D0000E94FE0A81E08E8B8D8BD9CF4B895C8973
:1010E00060E0CE010E960E94FE0A82E08E8BCFCF8A
:1010F0008E01025F1F4F50E040E062E0C8010E9495
:10110000FE0A811103C082E08E8BC1CF4FEF5FEFEB
:1011100061E0C8010E94FE0A1E8AB9CFFC018589E0
:101120000895FC01158A089587B1807E87B988B13A
:101130008F6188B985B78F7E85BF089586B1809508
:101140008F710895CF92EF92FF920F931F93E3E375
:10115000F3E0108210AA11AA02E02AE230E04BE28A
:1011600050E069E270E084E393E00E945D040F2E9A
:10117000F6E0CF2EF02D0F2EFAE2EF2EF12CF02D0F
:101180000BE210E025E044E250E065E270E08BE421
:1011900093E00E94530080911B0480FF03C08FEFF7
:1011A000809363031F910F91FF90EF90CF9008956C
:1011B000CF92EF92FF920F931F9381E0809367038A
:1011C000109297031092980303E02AE230E04BE27A
:1011D00050E069E270E088E693E00E945D040F2E23
:1011E000F7E0CF2EF02D0F2EFAE2EF2EF12CF02D9E
:1011F0000BE210E024E044E250E065E270E08FE7AB
:1012000093E00E94530080911B0481FF03C08FEF85
:10121000809397031F910F91FF90EF90CF900895C7
:10122000CF92EF92FF920F931F9383E080939B03E3
:101230001092CB031092CC0304E02AE230E04BE2A0
:1012400050E069E270E08CE993E00E945D04C12CFB
:101250000F2EF4E2EF2EF12CF02D05E210E023E04A
:1012600044E250E065E270E083EB93E00E945300BB
:1012700080911B0482FF03C08FEF8093CB031F91EB
:101280000F91FF90EF90CF900895CF92EF92FF9241
:101290000F931F9382E08093CF031092FF0310926D
:1012A000000405E02AE230E04BE250E069E270E041
:1012B00080ED93E00E945D04CC24C3940F2EF4E2F1
:1012C000EF2EF12CF02D05E210E022E044E250E098
:1012D00065E270E087EE93E00E94530080911B046A
:1012E00083FF03C09FEF9093FF0384FF09C08FEF3C
:1012F000809300048BE993E09093020480930104AF
:101300001F910F91FF90EF90CF9008950E94940845
:1013100069EF83E00E94C70A0E94EE020E949E08C5
:1013200080931B040E94610505E027E230E048E25B
:1013300050E066E270E084E094E00E94D4070E94EE
:10134000A2080E94D8080E9410090E9445090E9424
:101350008C072FEF81EE94E0215080409040E1F720
:1013600000C00000F4CFCF93DF93C62F482F50E08A
:1013700060E08CE194E00E94FE0AD0E050E040E0A2
:1013800062E08CE194E00E94FE0A811105C00E9497
:1013900092038C179D0790F350E040E061E08CE1F0
:1013A00094E00E94FE0ADF91CF910895CF93DF93DE
:1013B0000F92CDB7DEB70E949203892B29F0CE01A0
:1013C00001960E94B603F7CF82E50E945003811177
:1013D00026C08FE70E945003811126C080EC0E9436
:1013E0005003811123C062E284E10E94B3090E948C
:1013F00092030297E8F0CE0101960E94B603811194
:1014000019C089818B3511F08CEF0AC0CE0101968D
:101410000E94B603811110C089818F7001C081EFD5
:101420000F90DF91CF91089581EFFACF81EFF8CF40
:1014300088EFF6CF84EFF4CF83EFF2CF1F93CF93F3
:10144000DF9300D0CDB7DEB7182F0E949203892B0F
:1014500029F0CE0101960E94B603F7CF87E50E94DE
:101460005003811175C08FE70E945003811177C02E
:1014700080EC0E945003811174C061E08AE00E94F8
:10148000B3090E949203019711F088EF62C0CE0168
:1014900001960E94B603811166C089818B3511F0D7
:1014A0008CEF57C0812F8F700E94500381115DC057
:1014B0001FE180E00E945003811159C01150C9F70B
:1014C00062E084E10E94B3090E949203029711F046
:1014D00088EF3FC0CE0102960E94B603811149C039
:1014E000CE0101960E94B603811145C089818D35D8
:1014F00031F08CEF2EC0CE0101960E94B6030E94FF
:101500009203892BC1F787E50E945003811135C0F2
:101510008FEF0E945003811132C08FEF0E94500361
:1015200081112FC061E08BE00E94B3090E949203F9
:10153000019711F088EF0DC0CE0101960E94B6030D
:10154000811121C089818B3501F58A818F7001C09D
:1015500081EF0F900F90DF91CF911F91089581EF50
:10156000F8CF81EFF6CF84EFF4CF81EFF2CF81EFA8
:10157000F0CF84EFEECF84EFECCF81EFEACF81EFB5
:10158000E8CF81EFE6CF84EFE4CF8CEFE2CF10928B
:1015900022041092210492E094BD67BD16BCA99A62
:1015A000EEE6F0E0908192609083877085BD0895AB
:1015B000CF93DF9300D0CDB7DEB7F89480912104AC
:1015C000909122049A838983789489819A810F90DB
:1015D0000F90DF91CF9108958F938FB78F939F9343
:1015E000809121049091220401969093220480938B
:1015F00021049F918F918FBF8F911895DF92EF9269
:10160000FF920F931F93CF93DF9300D0CDB7DEB738
:10161000E82EF92E162FD42E052F0E94D80A282F37
:10162000392F3A8329831130C9F0123009F180E053
:10163000112351F00F900F90DF91CF911F910F91D7
:10164000FF90EF90DF900895F701D08201838981A8
:101650009A81948383831282812FECCFF7011182C8
:10166000108289819A8194838383128280E0E2CF01
:10167000F701828181110EC049815A812381348111
:1016800060817181260F371F4217530798F281E05E
:0C1690008283D0CF81E0CECFF894FFCF52
:10169C0000000001000000000000C2030000000078
:0E16AC000002000000006203000000000A14AB
:00000001FF
